:100000000C9434000C943E000C943E000C943E0082
:100010000C943E000C943E000C943E000C943E0068
:100020000C943E000C943E000C943E000C943E0058
:100030000C943E000C943E000C943E000C943E0048
:100040000C943E000C943E000C943E000C943E0038
:100050000C943E000C943E000C943E000C943E0028
:100060000C943E000C943E0011241FBECFEFD8E04C
:10007000DEBFCDBF0E944B000C9465000C940000C5
:10008000009741F0EBECF7E03197F1F700C000008A
:100090000197F6CF089580E88093610081E0809316
:1000A000610080E58CBD8DB581608DBD8CE284B929
:1000B0002A9ACAEA2A98CEBD0DB407FEFDCF2A9A25
:0E00C00088EE93E00E944000F5CFF894FFCF49
:00000001FF
